:020000040800F2
:1000000080110020A9010008B1010008B301000817
:10001000B5010008B7010008B901000800000000A0
:10002000000000000000000000000000BB0100080C
:10003000BD01000800000000BF01000855060008CF
:10004000C3010008C3010008C3010008C301000880
:10005000C3010008C3010008C3010008C301000870
:10006000C3010008C3010008C3010008C301000860
:10007000C3010008C3010008C3010008C301000850
:10008000C3010008C3010008C3010008000000000C
:10009000000000000000000000000000C301000894
:1000A000C3010008C3010008C3010008C301000820
:1000B000C3010008C3010008C3010008C301000810
:1000C000C3010008C3010008C3010008C301000800
:1000D000C30100087107000877070008000000004E
:1000E000C3010008C3010008C301000800000000AC
:1000F000000000000000000000000000C301000834
:1001000000000000C3010008C3010008C30100088B
:1001100000000000000000000000000000000000DF
:10012000C3010008C3010008C3010008C30100089F
:10013000C3010008000000000000000000000000F3
:10014000000000000000000000000000C3010008E3
:10015000C3010008C3010008C30100087D070008AF
:10016000C3010008C30100080000000000000000F7
:10017000000000000000000000000000000000007F
:1001800000000000C30100080000000000000000A3
:10019000C3010008DFF80CD000F0F2F80048004777
:1001A0002D120008801100200648804706480047AD
:1001B000FEE7FEE7FEE7FEE7FEE7FEE7FEE7FEE717
:1001C000FEE7FEE71D070008950100082DE9F05F36
:1001D0000546002092469B468846064681464024B6
:1001E0001BE0284641464746224600F081F8534628
:1001F0005A46C01A914110D311461846224600F0C3
:1002000068F82D1A67EB01084F46224601200021AD
:1002100000F05FF817EB00094E41201EA4F1010425
:10022000DFDC484631462A464346BDE8F09F10B51C
:10023000431A934209D28318881803E010F8011D6D
:1002400003F8011D521EF9D210BD40EA01039B07BD
:1002500003D009E008C9121F08C0042AFAD203E03B
:1002600011F8013B00F8013B521EF9D210BDD2B289
:1002700001E000F8012B491EFBD270470022F6E78F
:1002800010B513460A4604461946FFF7F0FF20460C
:1002900010BD10B5044604E00B7800F8013B03B133
:1002A000491C521EF8D2204610BD421C10F8011BFA
:1002B0000029FBD1801A704770B5064600F062FA3B
:1002C000046805460A220021304600F021F82C601F
:1002D00070BD202A04DB203A00FA02F100207047AA
:1002E0009140C2F1200320FA03F319439040704774
:1002F000202A04DB203A21FA02F00021704721FA7B
:1003000002F3D040C2F120029140084319467047E1
:100310002DE9F04791460F4680460446002614F822
:10032000015B2DB100F03EF80068405DC007F6D1DA
:100330002B2D02D02D2D18D0641E4A46394620465A
:1003400000F034F827B13968A14201D1C7F8008024
:1003500071054FF002040BD54042002803DD00F088
:1003600011FA0460A007BDE8F08746F48066E4E770
:100370000028F8DA00F006FA04606FF00040F2E7B7
:10038000064C074D06E0E06840F0010394E80700E2
:1003900098471034AC42F6D3FFF700FFB01F0008B7
:1003A000D01F000800487047AC1F00082DE9F05F1F
:1003B00082460078002715468B460AF10104B946AB
:1003C000302801D09DB113E014F8010B01277828E3
:1003D00003D0582801D045B10AE00DB1102D07D146
:1003E0000027102514F8010B02E0082500E00A257B
:1003F0000026B0460EE005FB080005FB06F10127CC
:1004000001EB10461FFA80F8B6F5803F00D3B946DD
:1004100014F8010B294600F018F80028EBDABBF1BC
:10042000000F05D00FB1641E00E05446CBF8004029
:10043000B9F1000F06D000F0A5F902210160C81E35
:10044000BDE8F09F48EA0640FAE73A2800D2303883
:1004500020F02002412A01D3A2F13700884201D3C3
:100460004FF0FF30704700000149086070470000FE
:100470000C3C024070B506460025002905D0012934
:1004800027D0022928D04FF4407500F09DF80928A4
:100490001ED1134C206820F440702060206828434F
:1004A0002060206820F0F8002060206846F00201FB
:1004B00008432060206840F48030206000F084F819
:1004C000216821F002012160216821F0F8012160FA
:1004D00070BD4FF48075D8E74FF40075D5E7000084
:1004E000103C024009200D490A68D20301D50120C1
:1004F00070470A68D20601D5062070470A68D205FF
:1005000001D5022070470A6812F0EF0F01D00720D2
:10051000704709688907FBD5082070470C3C0240EA
:100520000248016841F0004101607047103C024000
:1005300070B506460D4600F047F8092811D1094C60
:10054000206820F44070206020682060206840F01F
:1005500001002060357000F037F8216821F00101BA
:10056000216070BD103C024070B505460E4600F09B
:100570002BF8092813D10A4C206820F44070206021
:10058000206840F400702060206840F00100206086
:100590002E6000F019F8216821F00101216070BD82
:1005A000103C024005480068002805DA0348044969
:1005B0000C3801600349016070470000103C0240A4
:1005C00023016745AB89EFCD08B509200090FFF7FF
:1005D00089FF009002E0FFF785FF00909DF8000082
:1005E0000128F8D09DF8000008BD000030B50F23A9
:1005F000C27801250178002A1FD0154A126802F43A
:10060000E062C2F5E062C2F30722C2F10404D34003
:100610004278A24084781C401443220101F1E02179
:1006200081F80024007800F01F018D40400980000F
:1006300000F1E020C0F8005130BD01F01F008540FE
:100640004809800000F1E020C0F8805130BD000072
:100650000CED00E010B50D480269C16911440C4B66
:100660008469B1FBF3F21444846103FB1211C1618C
:100670000168002907D0D0E90212491C42F10002AA
:10068000C0E9021210BD0121016010BD4000002030
:1006900040420F0070B51D4E306800F00C001C4B3E
:1006A0001C4900280FD01C4D04280ED008280ED05D
:1006B0000B603068174AC0F30310121D105C0A6803
:1006C000C2400A6070BD0B60F3E70D60F1E70F4AAE
:1006D000121F1068C0F38054106800F03F0034B15E
:1006E000B5FBF0F01368C3F38813584305E0B3FB80
:1006F000F0F01368C3F3881358431268C2F3014241
:10070000521C5200B0FBF2F00860D2E708380240F9
:100710000024F4000C00002040787D01104801689E
:1007200041F4700101600F48016841F0010101606E
:100730000C4A00210832116002680B4B1A4002601B
:10074000031D0A4A1A60026822F4802202600548EA
:100750000C3001600249580680390860704700007B
:1007600088ED00E000380240FFFFF6FE1030002464
:10077000002000F0F3BC012000F0F0BC022000F0EB
:10078000EDBC0000004870472400002002E008C8CB
:10079000121F08C1002AFAD170477047002001E0FB
:1007A00001C1121F002AFBD170470000A0F10061B7
:1007B000B1F5804F01D2002070471049884201D224
:1007C000082070470E49884201D2102070470D4919
:1007D000884201D2182070470B49884201D220205C
:1007E00070470A49884201D2282070470849884248
:1007F00001D2302070474FF0FF3070470080000872
:1008000000C0000800000108000002080000040801
:100810000000060830B50022441841F221030DE023
:1008200010F8011B41F4807152004900CD0500D53C
:10083000521CD50300D55A40CD03F5D5A042EFD3C5
:1008400090B230BD2DE9F04105460E46174F4FF0EE
:10085000FF383868002818D02846FFF7A7FF04465D
:10086000601C1ED0A819FFF7A1FF0546681C18D010
:10087000FFF798FEF320FFF7F7FD39792046FFF7E1
:10088000F9FD0646092E06D102E04046BDE8F0819A
:100890000834AC42F1DDFFF743FEAC4201DD092E26
:1008A00001D04046F2E70120F0E7000004000020FC
:1008B0002DE9F04106460D46144622484FF0FF3818
:1008C0000068002806D03DB1B4F5C02F06D94046D7
:1008D000BDE8F0814046FBE74046F9E73046FFF7C8
:1008E00065FF401C29D03019FFF760FF401C24D061
:1008F000FFF758FEF320FFF7B7FD09E030462968FF
:10090000FFF732FE0746092F04D1361D2D1D241F87
:10091000032CF3DC092F0AD00BE0304615F8011B3D
:10092000761CFFF705FE0746092F02D1641E002C36
:10093000F3DCFFF7F5FD092F01D04046C8E70120A1
:10094000C6E700000400002070B50446084D4FF0D3
:10095000FF312868002801D0084670BD042C01D35F
:10096000084670BD00F0B8FB2C710120286070BDF6
:10097000040000202DE9F04F02464FF0FF30052A19
:100980007ED2AA4B53F82230002B79D0002977D0A1
:100990000B790B2B74D20025A54B4FF002084FF0BA
:1009A000010C03EBC202B1F902300CFA05F71F4249
:1009B00051D0546826686B004FF0030909FA03F917
:1009C00026EA0906266054686668BE436660546875
:1009D000A66826EA0906A6605468E66826EA0906BB
:1009E000E660EC1705EB5474E410A400D2F804E0C0
:1009F00020345EF804A06E07F60E4FF00F0B0BFAD2
:100A000006FB2AEA0B0A4EF804A091F804A0BAF1FA
:100A10000B0F35D2DFE80AF00620415B87ACB2BA93
:100A2000C4CEEC00B1F90070102F29D25768D7F866
:100A3000009008FA03F349EA0309C7F800905368E5
:100A4000DF68DF6053681F59B1F9009009FA06F9B1
:100A500047EA09071F51E0E0B1F90070102F0FD2EB
:100A6000D2F80490D9F800A008FA03F74AEA070A76
:100A7000C9F800A05368D3F80C9049EA070900E0D0
:100A800083E0C3F80C9053681F59B1F9009009FA3C
:100A900006F947EA09071F51BFE0B1F90070102FAE
:100AA00073D2D2F8049059F804A0B7404AEA070A72
:100AB00049F804A05468266808FA03F73E43266004
:100AC0005468E7680CFA03F63743E760A5E0B1F92C
:100AD0000090B9F1100F58D2D2F804A05AF804B01F
:100AE00009FA06F94BEA090B4AF804B0546826687B
:100AF00008FA03F946EA090626605468D4F8049017
:100B0000664649EA0709C4F8049054684F79D4F856
:100B100008909F4047EA0907A7605468E7689E402D
:100B20003743E76079E0B1F90070102F7BD291F87C
:100B30000590B9F1040F76D2D2F8049059F804A0C8
:100B4000B7404AEA070A49F804A05468266808FA38
:100B500003F73E4326605468666866604C799C40A3
:100B600053689E6834439C605368DC68DC6054E0E2
:100B700053681C6844EA09041C604EE053681C6812
:100B80001C605368DC68DC6047E04CE05468266811
:100B900026605468E66808FA03F31E43E6603CE00A
:100BA0005468266826605468E7680CFA03F63743F1
:100BB000E76032E04C79042C35D25668D6F80090C4
:100BC0000CFA03F449EA0409C6F800905668D6F80E
:100BD000049049EA0709C6F804904E799E4053688C
:100BE0009F683E439E605368DE682643DE6014E0E3
:100BF0004C79042C17D2546827680CFA03F6374353
:100C000027605468666866604C799C4053689E68AB
:100C100034439C605368DC68DC606D1C2DB2102D81
:100C2000FFF6C1AE0120BDE8F08F000028000020D3
:100C3000C41B00084FF0FF32052801D3104670474F
:100C4000084B53F8203043B149B1074A02EBC000CA
:100C500040680069088001207047104670471046C0
:100C60007047000028000020C41B000870B504462F
:100C70004FF0FF31052C01D3084670BD094D55F8E2
:100C8000240008B1084670BD204600F02DFA064841
:100C90000168064A52F8342011430160012045F8EA
:100CA000240070BD2800002030380240C41B00081A
:100CB00070B50446174D4FF0FF366869002801D023
:100CC000304670BD1449A4F1640088421BD800F07E
:100CD00013FA1248124A00230068A4FB0001FFF730
:100CE00075FA401EB0F1807F01D301200AE04FF079
:100CF000E02148610B4AF020107000208861072035
:100D00000861002008B1304670BD2C610120686187
:100D100070BD000040000020BCA007000C000020B7
:100D200040420F0023ED00E006484169002906D04B
:100D300001680029FCD000210160012070474FF0BC
:100D4000FF30704740000020F8B50B4615464FF0C5
:100D5000FF31032801D30846F8BD1C4A00EB4004CC
:100D600002EBC404E268BAB1C3B1194901EB401601
:100D7000F06981890091818921F020018181B4F994
:100D80000820AA420CDC18466168FFF750FAB4F953
:100D900008500020208112E00846F8BD0846F8BD42
:100DA0002A4618466168FFF742FAB4F90800421B68
:100DB00060684119FFF73BFA2089401B2081F069E8
:100DC000818941F0200181812846F8BD6000002022
:100DD000F41B00082DE9FE4F044689461646984646
:100DE0004FF0FF37032C02D33846BDE8FE8F694829
:100DF00004EB440100EBC10ADAF80C0008B13846F4
:100E0000F3E76549A9F5C870884201D33846ECE795
:100E1000032E01D33846E8E7A8F10100022801D3E8
:100E20003846E2E7204600F06DF95C4800EB4414D8
:100E3000207B8DF80000607B8DF80100A07B8DF891
:100E400002004FF0010B8DF803B06846FFF7CEFBB0
:100E5000A06901686269114301605148504DA3695E
:100E600038385049504AAB420DD100684FF4E05336
:100E700093FAA3F300F4E050B3FA83F3D840156873
:100E8000085CC5400CE000684FF4604393FAA3F39C
:100E900000F46040B3FA83F3D8401568085CC5409D
:100EA00005EBC50000EB05104FEA8901B0FBF1F13D
:100EB0006422B1FBF2F06FF01803434301EB8301AE
:100EC000322303EB0111B1FBF2F160F31F11E06972
:100ED00001817EB1012E02D0022E0BD105E0E06926
:100EE000818941F4C061818104E0E069818941F434
:100EF00080618181B8F1010F07D0B8F1020F04D1F0
:100F0000E069018A41F400510182E069818942F27D
:100F1000AC02114381812088ADF80400A0782179CA
:100F20000BFA00F00BFA01F10843ADF806000420BB
:100F30008DF8080000258DF8095001A9A068FFF779
:100F400019FD012822D0A07821790BFA00F00BFAC4
:100F500001FB40EA0B00ADF8060006208DF8080002
:100F600001A9A068FFF706FDE06981894DF653727B
:100F700011408181A06901686269914301608DF827
:100F800003506846FFF732FB38462EE7CAF80CB02C
:100F900001202AE76000002001CF0300F41B0008B5
:100FA00040380240B41B00080C0000202DE9F0413D
:100FB00088464FF0FF31032802D30846BDE8F08190
:100FC0001B4B00EB400403EBC404E3685BB3B8F1D4
:100FD000000F2AD0174901EB4017F869818921F0E9
:100FE00080018181B4F91600B4F91410461AB7F9DA
:100FF0001200851B954200DB1546206932460144EC
:10100000FFF715F920692A4630444146FFF70FF9EA
:101010007019E0820020A082F869818941F0800186
:1010200081812846CAE70846C8E70846C6E70000A7
:1010300060000020F41B000800F0B2BD21490868E0
:1010400040F20172104308601F4908684FF6FF0222
:1010500010401E4A104308601D49086840F0010016
:10106000086008688007FCD5194800220830026033
:10107000026812F00C0FFBD1026802600268026085
:10108000026802600A6822F080720A60104B114AFE
:101090001B1D1A600A6842F080720A6000E000BFFF
:1010A0000A689201FBD5016821F003010160016823
:1010B00041F0020101600168C1F381010229FAD106
:1010C000FFF7E8BA003C02400CED00E00000FA0532
:1010D00000380240103002040248002101604160E3
:1010E0007047000004000020024901EB800000214D
:1010F000016070472800002020210148FFF7BEB89A
:101100004000002070B50546094805EB450100EB9D
:10111000C10418212046FFF7B1F8064850F8250011
:10112000606004480C3050F82500206170BD00005C
:1011300060000020541C000810B540F27C410648B5
:10114000FFF79CF804484FF0FF31C0F85814002115
:10115000A0F8741410BD0000000500202DE9FC412A
:10116000284901EB4015E9690A88009289890191B3
:10117000BDF80410244F00EB4006890607EBC604B7
:1011800023D5BDF80000000704D557F8361009B183
:1011900000208847BDF80000800603D4BDF8000099
:1011A000000712D5E8698088C1B2B4F90800B5F922
:1011B0001020904204DA421C22816268115404E03B
:1011C00057F8361009B101208847BDF80400000621
:1011D0000FD5BDF8000000060BD5B4F91610B4F910
:1011E0001400814207DD411CA1822169085CE96984
:1011F0008880BDE8FC81E869818921F080018181D6
:10120000F7E70000F41B00086000002010B5064856
:10121000B0F902100B30891CFFF7FCFA08B100206E
:1012200010BD012010BD0000000500202DE9F04F89
:1012300089B00026FFF702FF4FF47A794846FFF79E
:1012400037FD844DA868FFF711FD834CA9686068DD
:10125000884202D06068FFF709FD002201234FF4A5
:10126000E1311046FFF7B6FD0220FFF76DFB0020CD
:10127000ADF80C00ADF80E00784804907848059061
:1012800003A800F013FC06A96068FFF7D3FC2078E0
:1012900001228240BDF81800DFF8C8A102424FF0D9
:1012A000FF314FF0005003D06F4B02689A4201D1DA
:1012B00001600EE0DAF800204FF48053B3EB524F98
:1012C00007D10160DAF80400DAF8001081F3088829
:1012D0008047664800F034FC654800F031FC042586
:1012E0000024FFF721FD052D10D2DFE805F00316DD
:1012F00050636D00574638460799FFF7A3FA012857
:1013000005D05CA600F014F9002404258CE04FF011
:10131000010800F0B5FB012586E008A800F05CF9A3
:10132000089828B15BA600F003F9002404257BE0AF
:101330004FF480625E49404600F00AF98346BBF1F3
:10134000000F1DDD0798A0EB0B0007905A46584987
:101350003846FFF7ADFA012805D056A600F0E8F8A8
:101360000024042560E00798002803DD5F4408F1AD
:10137000010802E058A60024032500F081FB53E099
:1013800052D044A600F0D4F8002404254CE008A86C
:1013900000F022F9089828B15BA600F0C9F80024F3
:1013A000042541E007A800F003F9079800283BDD79
:1013B000002539E002A800F049FB0298B8B3641C8C
:1013C00024B24C4534DA2FE04FF4806238490020D3
:1013D000FFF7BAFC0146002911DD354800780128E5
:1013E00006D0022804D0452822D065281CD11FE051
:1013F0002F4800F079FB012816D1022514E013D103
:10140000641C24B22EB10A2C03DB304600F098FB9A
:1014100000264C4508DB002443208DF804000122FF
:1014200001A90020FFF7C2FD00F0EAF859E7FFE745
:1014300016B1304600F084FB3C4800F081FBFFF71A
:1014400073FCFFF771FC002000F08CFB09B000205A
:10145000BDE8F08FF41B0008EC1B0008490D0008E4
:10146000AD0F000800000108785634126C1C00080B
:10147000E11D00080A0A45726173696E6720464CD7
:10148000415348206D656D6F7279206661696C65A6
:10149000642E00000A0A594D4F44454D2074726174
:1014A0006E73666572206661696C65642E0000006B
:1014B0007C0900200A0A50726F6772616D6D696E57
:1014C0006720464C415348206D656D6F72792066E8
:1014D00061696C65642E00000A0A446F6D61696E73
:1014E000206170706C69636174696F6E2070726FD7
:1014F0006772616D6D656420737563636573736690
:10150000756C6C792E0000000A0A52656365697675
:10151000696E6720594D4F44454D20626C6F636B77
:101520002030206661696C65642E00000C1F000885
:101530000648D0F87014002904D00121A0F8141432
:10154000012070474FF0FF30704700000005002079
:1015500070B50C46154D4FF0FF33D5F870140029C7
:1015600007D044B100281EDBB5F87414022904D05A
:1015700019E0184670BD184670BDB5F900108142DB
:1015800011D1B5F9020090420DDCB5F8761409B11D
:10159000002070BD054902460B312046FEF747FE8C
:1015A000B5F9020070BD184670BD000000050020AE
:1015B00008494FF0FF33D1F87024002A05D030B12C
:1015C000D1F858140160012070471846704718463A
:1015D000704700000005002008494FF0FF33D1F8A4
:1015E0007024002A05D030B1B1F9681401600120DF
:1015F00070471846704718467047000000050020E5
:101600002DE9FC5FDFF840B4DBF87004002815D04A
:101610005946BBF97404B1F9141401274FF47A76D2
:10162000002568B14FF018080BF10809012828D0EF
:10163000022849D0032801D1ABF81454BDE8FC9F1F
:10164000032902D0042919D10DE0ABF80050ABF802
:101650000650ABF86854ABF878640220ABF8740419
:10166000ABF876040AE0ABF80050ABF86854ABF87E
:1016700078640220ABF87404ABF87674ABF81454B9
:10168000DCE7DBF86034BBF95C0440F20542494614
:101690009847002802DDABF87864CFE7BBF8780400
:1016A000401E00B2ABF878040028C7DC8BF8088035
:1016B0008BF80980DBF86434BBF95E0402224946EA
:1016C0009847ABF87454B9E7DF4A4FF0060A4FF079
:1016D000FF34B2F95E04D2F86434012902D0022941
:1016E0002BD116E08BF81854CBF85844BBF876147D
:1016F000012909D08BF808808BF80980022249461D
:101700009847ABF8745418E0ABF87864ABF874748D
:1017100013E0BBF80010491C09B2ABF80010ABF89D
:1017200006508BF808A043228BF8092001292AD003
:10173000012249469847ABF87674ABF81454BBF8CD
:10174000740402289CD1BBF97604002898D00128A3
:101750001CD0022894D1BBF90600DBF86034A0F25B
:1017600005414A4200EB0901BBF95C049847002897
:101770007DDDBBF806100844ABF80600ABF87864D2
:10178000ABF876745AE74FF00202D2E7BBF90600D5
:10179000DBF86034A0F20541C1F1000200EB090161
:1017A000BBF95C049847002868DDBBF806100844C4
:1017B000ABF80600ABF878649BF80800012810D05D
:1017C000022815D018281BD004282DD08BF81854C7
:1017D000CBF858446FF00400ABF86804ABF87474AD
:1017E00075E08020ABF802008520ABF804006EE0C5
:1017F0004FF48060ABF80200401DABF8040066E0D7
:101800008BF808A0DBF86434BBF95E04012249467A
:1018100098478BF81854CBF858446FF00100ABF898
:101820006804ABF8745452E0DBF86C0450B18BF8E8
:101830001854CBF858446FF00400ABF86804ABF8C8
:101840007474FBE68BF808A043208BF80900DBF8E2
:101850006434BBF95E04022249469847ABF8005055
:10186000ABF806508BF81854CBF8584400E0C9E0A8
:10187000ABF878640220ABF87604DFE61DD1BBF844
:101880007804401E00B2ABF8780400281FDC8BF807
:1018900008808BF80980DBF86434BBF95E0402220F
:1018A000494698478BF81854CBF858446FF0050018
:1018B000ABF86804ABF8745409E08BF81854CBF813
:1018C00058446FF00200ABF86804ABF87454BBF8EE
:1018D00068040028B5D1BBF90600BBF904108842A2
:1018E000AFDB9BF809109BF80000814274D19BF894
:1018F0000A10C0F1FF0081426ED1FFF787FCE0B310
:10190000BBF8000048B1BBF90210DBF86C04884258
:101910004DDB401ACBF86C044DE04B4940220B31B3
:101920000E4601F20D40FEF7B4FC8BF857549BF8BD
:10193000180460B33046FEF7B8FC0BEB00010C3125
:1019400008226846FEF7A5FC8DF807506846FEF7AA
:10195000B3FCCBF85804CBF86C0400282BDA8BF8D6
:1019600008808BF80980DBF86434BBF95E0402223E
:10197000494698478BF8185400E01FE0CBF85844CC
:101980006FF00300ABF86804ABF8745456E68BF8BC
:1019900008A0DBF86434BBF95E040122494698478D
:1019A0008BF81854CBF85844ABF8745446E6ABF8AF
:1019B0000200CBF86C54ABF876543FE6ABF8065017
:1019C00015208BF80800DBF86434BBF95E040122B3
:1019D0004946984732E6FFE78BF808808BF8098084
:1019E000DBF86434BBF95E040222494698478BF861
:1019F0001854CBF858446FF00400ABF86804ABF807
:101A000074541BE614D1BBF87804401E00B2ABF846
:101A100078040028BADCABF8786443208BF808001F
:101A2000DBF86434BBF95E0401224946984705E6B9
:101A30008BF81854CBF858446FF00200ABF86804E8
:101A4000ABF87454FAE50000000500200B494FF094
:101A5000FF33D1F87024002A08D048B1B1F87414CB
:101A6000022907D000210160012070471846704705
:101A70001846704701210160F6E7000000050020CC
:101A800009494FF0FF30D1F87024002A0BD0B1F88B
:101A90007424022A07D1B1F87624002A03D1022047
:101AA000A1F81404012070470005002070B5044619
:101AB0000C4D4FF0FF30D5F87014002911D1002CD7
:101AC0000FD0616800290CD0A168002909D0FFF768
:101AD00033FB05F580600ECC5C300EC00120C5F8EC
:101AE000700470BD0005002070B503460C46134D10
:101AF0004FF0FF30D5F8701400291AD0002C18DBF5
:101B000040F205418C4214D2B5F87414002910D16A
:101B100003267BB12246194605F10800FEF787FB34
:101B2000EC801CB10420A5F8140401E0A5F81464AD
:101B3000012070BDA5F81464012070BD00050020CF
:101B400010B5044601E0FFF777FA14F8010B0449D9
:101B50000028F8D1BDE810400A20FFF76DBA000058
:101B60002000002072B64FF00051002802D0094832
:101B7000086002E04FF0FF300860BFF34F8F064867
:101B80000168064A01F4E06111430160BFF34F8F21
:101B9000FEE70000785634120CED00E00400FA0570
:101BA00003490A881206FCD5C0F308028A807047F0
:101BB00000100140000000000102030401020304C0
:101BC00006070809010000000000024002000000B2
:101BD0000004024004000000000802400800000069
:101BE000000C024010000000001002400400000041
:101BF0000200000007000A000900000000000000C9
:101C000025030300080410001000000044380240BF
:101C10000010014007000300020000000000000067
:101C200026030300100010000000020040380240AC
:101C30000044004008000C000B0000000000000001
:101C40004703030010001000200000004438024049
:101C500000140140A8000020B0040020C0040020AF
:101C6000D0040020E0040020F00400200A3D3D3DA7
:101C70003D3D3D3D3D3D3D3D3D3D3D3D3D3D3D3D94
:101C80003D3D3D3D3D3D3D3D3D3D3D3D3D3D3D3D84
:101C90003D3D3D3D3D3D3D3D3D3D3D3D3D3D3D3D74
:101CA0003D0A3D2020202020202020202020202010
:101CB0002020202020202020202020202020202024
:101CC0002020202020202020202020202020202014
:101CD00020202020203D0A3D202020496E2D4170EB
:101CE000706C69636174696F6E2050726F677261A6
:101CF0006D6D696E67204170706C69636174696FA6
:101D00006E2056312E30302020203D0A3D202020EC
:101D1000666F722053544D6963726F656C656374AE
:101D2000726F6E6963732053544D333246343031D1
:101D300020646576696365732E2020202020203D75
:101D40000A3D202020436F707972696768742032E1
:101D50003031342C20426974636F6E74726F6C2062
:101D6000476D62482C20537769747A65726C616E96
:101D7000642020203D0A3D202020202020202020FB
:101D80002020202020202020202020202020202053
:101D90002020202020202020202020202020202043
:101DA0002020202020202020203D0A3D3D3D3D3D9B
:101DB0003D3D3D3D3D3D3D3D3D3D3D3D3D3D3D3D53
:101DC0003D3D3D3D3D3D3D3D3D3D3D3D3D3D3D3D43
:101DD0003D3D3D3D3D3D3D3D3D3D3D3D3D3D3D0A66
:101DE000000A57616974696E6720666F72206170BE
:101DF000706C69636174696F6E20746F2062652016
:101E000070726F6772616D6D65642E0A0A45787035
:101E1000656374656420666F726D61743A206269EF
:101E20006E6172792073747265616D2C20594D4F0B
:101E300044454D2070726F746F636F6C2E0A466F4D
:101E40007220636F6D706C69616E63652077697471
:101E50006820594D4F44454D2070726F746F636F09
:101E60006C2074686973206170706C696361746957
:101E70006F6E0A73656E6473206F6E65202743274B
:101E8000206368617261637465722070657220738B
:101E900065636F6E64207768696C6520776169742B
:101EA000696E672E0A0A4966206974207265636547
:101EB0006976657320274527206F722027652720C4
:101EC0007768696C652077616974696E672C206337
:101ED0006F6E74726F6C2069730A706173736564DE
:101EE00020616C6F6E6720746F20646F6D61696E26
:101EF000206170706C69636174696F6E206966201F
:101F00006578697374696E672E0A0A000A49415040
:101F1000206170706C69636174696F6E20746572A2
:101F20006D696E617465642E0A0000404040404057
:101F3000404040404141414141404040404040409C
:101F400040404040404040404040400502020202C4
:101F500002020202020202020202022020202020CB
:101F60002020202020020202020202029090909083
:101F70009090101010101010101010101010101061
:101F800010101010101002020202020288888888C5
:101F900088880808080808080808080808080808C1
:101FA0000808080808080202020240002B1F000867
:101FB000D01F000804000020240000008C07000847
:101FC000F41F000828000020581100009C0700089A
:101FD000000000000000000000BD0105000000003E
:101FE00000000000010203040607080900000000C9
:041FF00000000000ED
:040000050800019559
:00000001FF
